:1000000071C0000084C000007FC000007DC00000FF
:100010007BC0000079C0000077C0000075C0000000
:1000200073C0000071C000006FC000006DC0000010
:100030006BC0000069C0000067C0000065C0000020
:1000400063C0000092C200005FC000005DC00000FD
:100050005BC0000030C2000057C0000055C0000067
:1000600053C0000051C000004FC000004DC0000050
:100070004BC00000E8C2000047C0000045C00000BF
:1000800043C0000041C000003FC000003DC0000070
:100090003BC0000039C0000037C0000035C0000080
:1000A00033C0000031C000002FC000002DC0000090
:1000B0002BC0000029C0000027C0000025C00000A0
:1000C00023C0000021C000001FC000001DC00000B0
:1000D0001BC0000019C0000017C0000015C00000C0
:1000E00013C0000011241FBECFEFD1E2DEBFCDBF91
:1000F00000E00CBF22E0A0E0B2E001C01D92A035FC
:10010000B207E1F75DD2B9C37BCFF0C208951F9269
:100110000F920FB60F9211240F900FBE0F901F90E9
:100120001895CF93DF9380E083D2C4E3D2E09F871A
:100130008E8781E07DD29983888382E079D29B8308
:100140008A8383E075D29D838C8384E071D29F8300
:100150008E8385E06DD29987888786E069D29B87F8
:100160008A8787E065D29D878C87DF91CF9108953C
:100170008F929F92AF92BF92CF92DF92EF92FF92B7
:100180000F931F93CF93DF93CDB7DEB7A0970FB632
:10019000F894DEBF0FBECDBFCE0101966C018E017B
:1001A0000F5D1F4FFC0111921192119211920E17C7
:1001B0001F07C9F70F2EF4E6EF2EF12CF02DAFE458
:1001C000B3EC1197F1F700C00000ABDF24E332E09D
:1001D000F601D9014D915D919D0180819181A281AE
:1001E000B381840F951FA11DB11D81939193A1939C
:1001F000B193E017F10769F7B1E0EB1AF108F9F6EE
:100200000F2EF4E1EF2EF2E0FF2EF02D0F2EF4E68C
:100210008F2E912CA12CB12CF02DF60161917191B2
:10022000819191916F01A501940105D3D7012D937F
:100230003D937D010C151D0581F7A0960FB6F8942E
:10024000DEBF0FBECDBFDF91CF911F910F91FF9009
:10025000EF90DF90CF90BF90AF909F908F900895D8
:10026000CF93DF93A4E3B2E0C4E1D2E0E4E4F2E0B0
:1002700044E452E061E02D913D91899199918C592E
:100280009F4F8217930710F4608301C0108231964C
:10029000A417B50781F7DF91CF9108950F931F93AE
:1002A000CF93DF93CDB7DEB7A0970FB6F894DEBF3C
:1002B0000FBECDBFFE013196CE018196DF011D92AA
:1002C0001D921D921D92A817B907C9F724E332E0C9
:1002D00044E152E064E472E0D9018D919D919D0169
:1002E000DA010D911D91AD01A0E0B0E00C5E1F4F51
:1002F000801B910BA109B1092AF080839183A2830D
:10030000B38304C01082118212821382349626179E
:10031000370711F749815A816B817C81DB01CA0162
:10032000880F991FAA1FBB1F880F991FAA1FBB1FE9
:100330004D815E816F8178858A019B01000F111FBD
:10034000221F331F400F511F621F731F480F591F79
:100350006A1F7B1F89859A85AB85BC85880F991F8D
:10036000AA1FBB1F840F951FA61FB71F4D855E8553
:100370006F857889840F951FA61FB71F49895A89F1
:100380006B897C89841B950BA60BB70B4D895E8905
:100390006F89788D440F551F661F771F841B950B3F
:1003A000A60BB70B498D5A8D6B8D7C8D8A019B01F5
:1003B000000F111F221F331F400F511F621F731F99
:1003C000841B950BA60BB70B4D8D5E8D6F8D78A1A1
:1003D000440F551F661F771F440F551F661F771F59
:1003E000841B950BA60BB70B80930E0290930F0204
:1003F000A0931002B0931102A0960FB6F894DEBF3E
:100400000FBECDBFDF91CF911F910F9108958091C5
:100410000E0290910F02A0911002B09111028093F0
:10042000020290930302A0930402B093050280930A
:100430000A0290930B02A0930C02B0930D02089550
:1004400040910A0250910B0260910C0270910D02D2
:1004500086E990E0A0E0B0E0841B950BA60BB70BFB
:100460004A565F4F6F4F7F4F413921E05207610578
:10047000710524F040E951E060E070E0813921E04D
:100480009207A105B10524F080E991E0A0E0B0E079
:1004900077231CF440E050E0BA01509309024093E6
:1004A0000802BB231CF480E090E0DC01909307027B
:1004B0008093060208951F920F920FB60F92112497
:1004C0000BB60F922F933F938F939F93EF93FF93CE
:1004D0008091000290910102892B41F4E2E0F1E069
:1004E000808180618083808180628083209100028E
:1004F0003091010280910802909109022817390772
:1005000029F4E2E0F1E080818F7E80832091000277
:100510003091010280910602909107022817390755
:1005200029F4E2E0F1E080818F7D808380910002F8
:1005300090910102843F21E0920729F41092010278
:100540001092000205C00196909301028093000270
:10055000FF91EF919F918F913F912F910F900BBE43
:100560000F900FBE0F901F9018951F920F920FB60D
:100570000F9211240BB60F922F933F934F935F93DB
:100580006F937F938F939F93AF93BF93EF93FF935B
:10059000C8DD66DE83DE3BDF53DFFF91EF91BF9165
:1005A000AF919F918F917F916F915F914F913F910B
:1005B0002F910F900BBE0F900FBE0F901F901895AC
:1005C000A4DDD6DD78948AEA87BD88EE93E0909327
:1005D000890080938800FFCFE4E6F0E080818E7F81
:1005E000808380E480937C008DEA80937A0010926F
:1005F0007B008FEF80937D0080E00895ECE7F0E0D2
:100600009081907E90839081892B8083EAE7F0E04F
:10061000808180648083089580917A0082958170C2
:100620000895809178002091790090E0922B0895B0
:10063000E5DFF2DF8823E9F3F4DFEAE7F0E0208189
:100640002061208308951F920F920FB60F921124FC
:100650000BB60F922F933F934F935F936F937F93BC
:100660008F939F93AF93BF93EF93FF93E091120209
:10067000F0911302309709F01995FF91EF91BF9116
:10068000AF919F918F917F916F915F914F913F912A
:100690002F910F900BBE0F900FBE0F901F901895CB
:1006A0005098589892C00895E8E0F1E080818E7FDC
:1006B000808380818D7F808380818B7F8083808118
:1006C000877F808380818F7E808380818F7D808300
:1006D00080818F7B808380818F7780837DCF089519
:1006E000279A2F989D9AA5987FC00895CF93DF935E
:1006F0008FE3809365008FEE8093640081B111B821
:1007000082B18FEF82B994B114B895B185B997B120
:1007100017B898B188B99AB11AB89BB18BB99DB185
:100720001DB89EB18EB990B310BA91B381BB93B38B
:10073000907C93BB94B39F6394BBA1E0B1E09C9188
:100740001C92E2E0F1E090818083C4E0D1E09881E6
:100750001882C5E0D1E098818883C7E0D1E0988114
:100760001882C8E0D1E098818883CAE0D1E09881FE
:100770001882CBE0D1E098818883089A109A099A70
:10078000119A0A9A129A259A2D98269A2E986B9A5F
:1007900073986C9A74988C9180618C9380818F7E11
:1007A00080838C9180628C9380818F7D808340E0F8
:1007B00060E881E690E010D013BE15BE71DF74DFF3
:1007C0008FDF20D0DF91CF91089582E08093690080
:1007D00081E08DBB80E008952FB7F8941BBEFC012B
:1007E000608340832FBF0895E4E6F0E080818F7D31
:1007F000808381EA84BD81E085BD8AEA87BD88BDAA
:1008000080E00895E4E6F0E08081877F80838AE1DC
:10081000809381008BEA90E090938700809386001C
:100820008AEA90E0909389008093880082E0809328
:100830006F0080E00895A1E21A2EAA1BBB1BFD01E8
:100840000DC0AA1FBB1FEE1FFF1FA217B307E407AF
:10085000F50720F0A21BB30BE40BF50B661F771F07
:10086000881F991F1A9469F76095709580959095E7
:0E0870009B01AC01BD01CF010895F894FFCFAC
:00000001FF
