S00F00006C696E655F56352E7372656383
S113000071C000008FC000008DC000008BC00000D4
S113001089C0000087C0000085C0000083C00000C4
S113002081C000008AC000007DC000007BC00000C9
S113003079C0000013C5000075C0000073C0000043
S113004071C0000065C500006DC000006BC00000F9
S113005069C00000A9C4000065C0000063C00000BE
S113006061C000005FC000005DC000005BC0000014
S113007059C0000035C6000055C0000053C0000040
S113008051C000004FC000004DC000004BC0000034
S113009049C0000047C0000045C0000043C0000044
S11300A041C000003FC000003DC000003BC0000054
S11300B039C0000037C0000035C0000033C0000064
S11300C031C000002FC000002DC000002BC0000074
S11300D029C0000027C0000025C0000023C0000084
S11300E021C0000011241FBECFEFD1E2DEBFCDBF7F
S11300F000E00CBF12E0A0E0B2E0EAE9F0E200E0C8
S11301000BBF02C007900D92A430B107D9F722E0CB
S1130110A4E0B2E001C01D92AA35B207E1F72DD5E3
S11301200C944B106DCFCF93DF93CDB7DEB70E9405
S1130130DA0D0000DF91CF9108951F920F92009085
S11301405F000F921124CF93DF93CDB7DEB7000089
S1130150DF91CF910F9000925F000F901F90189540
S1130160CF93DF931F921F92CDB7DEB789836A8343
S11301708A818823A9F082E091E022E031E0F9014C
S11301802081622F2981422F50E021E030E002C01B
S1130190220F331F4A95E2F7262BFC01208315C05A
S11301A082E091E022E031E0F9012081622F29818F
S11301B0422F50E021E030E002C0220F331F4A9565
S11301C0E2F720952623FC01208300000F900F9076
S11301D0DF91CF910895CF93DF931F92CDB7DEB710
S11301E08983698184E0BCDF00000F90DF91CF91A7
S11301F00895CF93DF93CDB7DEB780E04ED59093CB
S11302004D0280934C0281E048D590933F02809345
S11302103E0282E042D5909341028093400283E003
S11302203CD5909343028093420284E036D5909368
S113023045028093440285E030D590934702809331
S1130240460286E02AD5909349028093480287E0CB
S113025024D590934B0280934A020000DF91CF9102
S11302600895CF93DF93CDB7DEB7E8970FB6F89430
S1130270DEBF0FBECDBF1A82198216C089819A8152
S1130280880F991F880F991F9E012F5F3F4F820F80
S1130290931F4896FC011082118212821382898175
S11302A09A8101969A83898389819A81089734F384
S11302B01C821B82B7C080E090E0A8ECB1E48B877D
S11302C09C87AD87BE8720E030E04AEF54E46B851D
S11302D07C858D859E850E94C60FDC01CB018F87AE
S11302E0988BA98BBA8B20E030E040E85FE36F8500
S11302F0788989899A890E94DB0E88232CF481E00D
S113030090E09C8B8B8B3FC020E03FEF4FE757E49E
S11303106F85788989899A890E94C20F18164CF5CD
S113032020E030E040E251E46B857C858D859E853C
S11303300E94C60FDC01CB01BC01CD010E94E40E7A
S1130340DC01CB019C8B8B8B0FC088EC90E09E8BE7
S11303508D8B8D899E890197F1F79E8B8D8B8B896F
S11303609C8901979C8B8B8B8B899C89892B69F742
S113037014C06F85788989899A890E94E40EDC010A
S1130380CB019C8B8B8B8B899C89988F8F8B8F89CE
S1130390988D0197F1F7988F8F8B2BDF1E821D822A
S11303A038C08D819E81880F991F880F991F9E01E7
S11303B02F5F3F4F820F931F4896FC0120813181AC
S11303C0428153818D819E81880F991F825C9D4F4C
S11303D0FC0180819181CC01A0E0B0E0820F931FE9
S11303E0A41FB51F2D813E81220F331F220F331FFF
S11303F0AE014F5F5F4F240F351F285E3F4FF90159
S113040080839183A283B3838D819E8101969E8391
S11304108D838D819E81089724F28B819C81019626
S11304209C838B838B819C81843691050CF443CF10
S113043018861F822AC08F819885880F991F880F7C
S1130440991F9E012F5F3F4F820F931F4896FC0117
S113045080819181A281B38124E630E040E050E0C4
S1130460BC01CD010E942910DA01C9019C018F81D0
S11304709885880F991F825E9D4FFC0131832083EC
S11304808F819885019698878F838F8198850897A7
S113049094F21A86198616C089859A85880F991F41
S11304A0880F991F9E012F5F3F4F820F931F48961D
S11304B0FC01108211821282138289859A85019629
S11304C09A87898789859A85089734F30000E89686
S11304D00FB6F894DEBF0FBECDBFDF91CF91089564
S11304E0CF93DF931F921F92CDB7DEB71A82198282
S11304F02AC089819A81880F991F825C9D4FFC01D3
S11305002081318189819A81880F991F825E9D4F54
S1130510FC01808191818C599F4F8217930740F48D
S113052089819A81825B9D4F21E0FC01208306C072
S113053089819A81825B9D4FFC01108289819A8115
S113054001969A83898389819A81089794F200009D
S11305500F900F90DF91CF910895EF92FF920F9338
S11305601F93CF93DF93CDB7DEB7A4970FB6F8945C
S1130570DEBF0FBECDBF1A82198216C089819A814F
S1130580880F991F880F991F9E012F5F3F4F820F7D
S1130590931F0496FC0110821182128213828981B6
S11305A09A8101969A83898389819A81089734F381
S11305B01C821B827FC08B819C81880F991F825C67
S11305C09D4FFC0180819181CC01A0E0B0E02B81A2
S11305D03C81220F331F220F331FAE014F5F5F4F49
S11305E0240F351F2C5F3F4FF90180839183A28331
S11305F0B3838B819C81880F991F880F991F9E015B
S11306002F5F3F4F820F931F0496FC01208131819D
S1130610428153818B819C81880F991F825E9D4FFB
S1130620FC01808191814996CC01A0E0B0E0790180
S11306308A01E81AF90A0A0B1B0BD801C7012B819E
S11306403C81220F331F220F331FAE014F5F5F4FD8
S1130650240F351F2C5F3F4FF90180839183A283C0
S1130660B3838B819C81880F991F880F991F9E01EA
S11306702F5F3F4F820F931F0496FC01808191816D
S1130680A281B381BB238CF48B819C81880F991F39
S1130690880F991F9E012F5F3F4F820F931F04966F
S11306A0FC0110821182128213828B819C8101963B
S11306B09C838B838B819C8108970CF47CCF8D81E8
S11306C09E81AF81B8857C018D01EE0CFF1C001F5B
S11306D0111FEE0CFF1C001F111F29853A854B8545
S11306E05C85DA01C901880F991FAA1FBB1F820FFD
S11306F0931FA41FB51FA8019701280F391F4A1F74
S11307005B1F8D859E85AF85B889880F991FAA1FA9
S1130710BB1F280F391F4A1F5B1F89899A89AB8920
S1130720BC89280F391F4A1F5B1F8D899E89AF8999
S1130730B88D281B390B4A0B5B0B898D9A8DAB8DB9
S1130740BC8D880F991FAA1FBB1F79018A01E81A63
S1130750F90A0A0B1B0B2D8D3E8D4F8D58A1DA0122
S1130760C901880F991FAA1FBB1F820F931FA41FC3
S1130770B51FB095A095909581959F4FAF4FBF4FF2
S1130780A8019701280F391F4A1F5B1F89A19AA14D
S1130790ABA1BCA1880F991FAA1FBB1F880F991F6B
S11307A0AA1FBB1F79018A01E81AF90A0A0B1B0B5D
S11307B0D801C7018093040290930502A093060216
S11307C0B09307020000A4960FB6F894DEBF0FBEE4
S11307D0CDBFDF91CF911F910F91FF90EF900895BE
S11307E0CF92DF92EF92FF920F931F93CF93DF93F9
S11307F0CDB7DEB78091040290910502A091060264
S1130800B091070285369105A105B1054CF180919F
S1130810040290910502A0910602B0910702843669
S11308209105A105B105E4F420910C0230910D026B
S113083040910E0250910F028091040290910502A2
S1130840A0910602B0910702820F931FA41FB51F47
S113085080930C0290930D02A0930E02B0930F02AA
S11308602091040230910502409106025091070242
S11308708091100290911102A0911202B091130282
S113088079018A01E81AF90A0A0B1B0BD801C7017E
S11308908093140290931502A0931602B09317024A
S11308A08091040290910502A0910602B091070282
S11308B08093100290931102A0931202B09313023A
S11308C08091040290910502A0910602B091070262
S11308D0BC01CD010E94120FDC01CB012DEC3CECDC
S11308E04CEC5DE3BC01CD010E94C60FDC01CB01E1
S11308F06C017D0180910C0290910D02A0910E0279
S1130900B0910F02BC01CD010E94120FDC01CB019A
S11309102DEC3CEC4CEC5DE3BC01CD010E94C60F18
S1130920DC01CB019C01AD01C701B6010E94770E29
S1130930DC01CB016C017D018091140290911502C0
S1130940A0911602B0911702BC01CD010E94120FB2
S1130950DC01CB012DEC3CEC4CEC5DE3BC01CD01A6
S11309600E94C60FDC01CB019C01AD01C701B60199
S11309700E94770EDC01CB01BC01CD010E94DF0E89
S1130980DC01CB018093080290930902A0930A0230
S1130990B0930B020000DF91CF911F910F91FF9054
S11309A0EF90DF90CF9008951F920F9200905F0018
S11309B00F92112400905B000F922F933F934F935B
S11309C05F936F937F938F939F93AF93BF93EF93B3
S11309D0FF93CF93DF93CDB7DEB780911802909148
S11309E01902019711F480E0F6DB809118029091CE
S11309F0190220910002309101028217930711F429
S1130A0081E0E9DB8091180290911902843F9140C2
S1130A1021F41092190210921802809118029091F8
S1130A201902019690931902809318020000DF9135
S1130A30CF91FF91EF91BF91AF919F918F917F9152
S1130A406F915F914F913F912F910F9000925B00B6
S1130A500F9000925F000F901F9018951F920F92B5
S1130A6000905F000F92112400905B000F922F936F
S1130A703F934F935F936F937F938F939F93AF9322
S1130A80BF93EF93FF93CF93DF93CDB7DEB78091FE
S1130A901A0290911B02019711F480E09CDB809173
S1130AA01A0290911B0220910202309103028217D4
S1130AB0930711F481E08FDB80911A0290911B025D
S1130AC0843F914021F410921B0210921A028091EB
S1130AD01A0290911B02019690931B0280931A02B2
S1130AE00000DF91CF91FF91EF91BF91AF919F9162
S1130AF08F917F916F915F914F913F912F910F90C3
S1130B0000925B000F9000925F000F901F90189569
S1130B101F920F9200905F000F92112400905B00CF
S1130B200F922F933F934F935F936F937F938F9382
S1130B309F93AF93BF93EF93FF93CF93DF93CDB77F
S1130B40DEB757DBCDDC09DD4BDE0000DF91CF9152
S1130B50FF91EF91BF91AF919F918F917F916F9191
S1130B605F914F913F912F910F9000925B000F90F6
S1130B7000925F000F901F901895CF93DF93CDB72D
S1130B80DEB7D1DA6EDB789483EB90E02AEAFC01DD
S1130B90208387E490E02AEAFC01208388E890E03F
S1130BA028EE33E0FC0131832083FFCFCF93DF9322
S1130BB0CDB7DEB784E690E024E630E0F901208189
S1130BC02E7FFC0120838CE790E020E4FC0120834D
S1130BD08AE790E02DEAFC0120838BE790E028E08F
S1130BE0FC0120838DE790E02FEFFC01208380E05F
S1130BF0DF91CF910895CF93DF931F92CDB7DEB7E6
S1130C0089838CE790E02CE730E0F9012081207E95
S1130C10FC0120838CE790E02CE730E0F90130817F
S1130C202981232BFC0120838AE790E02AE730E026
S1130C30F90120812064FC01208300000F90DF91E2
S1130C40CF910895CF93DF93CDB7DEB78AE790E0D5
S1130C50FC018081882F90E08071992721E0892B05
S1130C6009F420E0822FDF91CF910895CF93DF9391
S1130C70CDB7DEB788E790E0FC018081282F30E013
S1130C8089E790E0FC018081882F90E0982F8827E5
S1130C90822B932BDF91CF910895CF93DF9300D0D4
S1130CA0CDB7DEB78B838B81A6DF0000CBDF982F17
S1130CB081E089278823D1F7D9DF9A8389838AE75A
S1130CC090E02AE730E0F90120812061FC012083D3
S1130CD089819A810F900F900F90DF91CF910895A1
S1130CE01F920F9200905F000F92112400905B00FE
S1130CF00F922F933F934F935F936F937F938F93B1
S1130D009F93AF93BF93EF93FF93CF93DF93CDB7AD
S1130D10DEB780911C0290911D02892B31F08091E5
S1130D201C0290911D02FC0119950000DF91CF91E6
S1130D30FF91EF91BF91AF919F918F917F916F91AF
S1130D405F914F913F912F910F9000925B000F9014
S1130D5000925F000F901F901895CF93DF931F921E
S1130D601F92CDB7DEB789836A838A81882F90E08A
S1130D708130910599F082309105D9F0892B09F0E1
S1130D802FC081E290E021E230E0F9012081322F8E
S1130D90298120952323FC01208322C081E290E055
S1130DA021E230E0F90130812981232BFC012083E9
S1130DB017C081E290E021E230E0F9012081322F76
S1130DC0298120952323FC01208382E290E022E202
S1130DD030E0F90130812981232BFC0120830000BC
S1130DE000000F900F90DF91CF910895CF93DF9380
S1130DF01F921F92CDB7DEB789836A838A81882FB9
S1130E0090E081309105E1F08230910571F1892BF8
S1130E1009F055C081E290E021E230E0F90120813F
S1130E20622F2981422F50E021E030E002C0220FDE
S1130E30331F4A95E2F720952623FC0120833FC007
S1130E4081E290E021E230E0F9012081622F2981E2
S1130E50422F50E021E030E002C0220F331F4A95B8
S1130E60E2F7262BFC0120832AC081E290E021E2F4
S1130E7030E0F9012081622F2981422F50E021E0E6
S1130E8030E002C0220F331F4A95E2F72095262B4B
S1130E90FC01208382E290E022E230E0F90120812B
S1130EA0622F2981422F50E021E030E002C0220F5E
S1130EB0331F4A95E2F7262BFC0120830000000033
S1130EC00F900F90DF91CF910895CF93DF931F92EE
S1130ED01F92CDB7DEB789836A838A818823A9F0FC
S1130EE082E290E022E230E0F9012081622F298140
S1130EF0422F50E021E030E002C0220F331F4A9518
S1130F00E2F7262BFC01208315C082E290E022E266
S1130F1030E0F9012081622F2981422F50E021E045
S1130F2030E002C0220F331F4A95E2F720952623B2
S1130F30FC01208300000F900F90DF91CF91089562
S1130F40CF93DF931F921F92CDB7DEB789836A8355
S1130F508A81813051F584E290E024E230E0F901A5
S1130F602081622F2981422F50E021E030E002C02D
S1130F70220F331F4A95E2F720952623FC01208394
S1130F8085E290E025E230E0F9012081622F298199
S1130F90422F50E021E030E002C0220F331F4A9577
S1130FA0E2F7262BFC01208318C08A818823A9F448
S1130FB085E290E025E230E0F9012081622F298169
S1130FC0422F50E021E030E002C0220F331F4A9547
S1130FD0E2F720952623FC01208300000F900F9058
S1130FE0DF91CF910895CF93DF931F921F92CDB7D6
S1130FF0DEB789836A838A81882F90E081309105E6
S113100099F082309105D9F0892B09F02FC084E240
S113101090E024E230E0F9012081322F29812095EB
S11310202323FC01208322C084E290E024E230E008
S1131030F90130812981232BFC01208317C084E22C
S113104090E024E230E0F9012081322F29812095BB
S11310502323FC01208385E290E025E230E0F901BE
S113106030812981232BFC012083000000000F9094
S11310700F90DF91CF910895CF93DF931F921F922A
S1131080CDB7DEB789836A838A81882F90E0813067
S11310909105E1F08230910571F1892B09F055C079
S11310A084E290E024E230E0F9012081622F29817A
S11310B0422F50E021E030E002C0220F331F4A9556
S11310C0E2F720952623FC0120833FC084E290E0D0
S11310D024E230E0F9012081622F2981422F50E07F
S11310E021E030E002C0220F331F4A95E2F7262B9D
S11310F0FC0120832AC084E290E024E230E0F9017C
S11311002081622F2981422F50E021E030E002C08B
S1131110220F331F4A95E2F72095262BFC012083EA
S113112085E290E025E230E0F9012081622F2981F7
S1131130422F50E021E030E002C0220F331F4A95D5
S1131140E2F7262BFC012083000000000F900F9093
S1131150DF91CF910895CF93DF931F921F92CDB764
S1131160DEB789836A838A81882F90E08130910574
S113117099F082309105D9F0892B09F02FC087E2CC
S113118090E027E230E0F9012081322F2981209577
S11311902323FC01208322C087E290E027E230E091
S11311A0F90130812981232BFC01208317C087E2B8
S11311B090E027E230E0F9012081322F2981209547
S11311C02323FC01208388E290E028E230E0F90147
S11311D030812981232BFC012083000000000F9023
S11311E00F90DF91CF910895CF93DF931F921F92B9
S11311F0CDB7DEB789836A838A81882F90E08130F6
S1131200910599F082309105D9F0892B09F02FC00E
S11312108AE290E02AE230E0F9012081322F29812C
S113122020952323FC01208322C08AE290E02AE255
S113123030E0F90130812981232BFC01208317C080
S11312408AE290E02AE230E0F9012081322F2981FC
S113125020952323FC0120838BE290E02BE230E0F5
S1131260F90130812981232BFC0120830000000037
S11312700F900F90DF91CF910895CF93DF931F923A
S11312801F92CDB7DEB789836A838A81882F90E065
S11312908130910599F082309105D9F0892B09F0BC
S11312A02FC08DE290E02DE230E0F9012081322F51
S11312B0298120952323FC01208322C08DE290E024
S11312C02DE230E0F90130812981232BFC012083B8
S11312D017C08DE290E02DE230E0F9012081322F39
S11312E0298120952323FC0120838EE290E02EE2C5
S11312F030E0F90130812981232BFC012083000097
S113130000000F900F90DF91CF910895CF93DF935A
S11313101F921F92CDB7DEB789836A838A81882F93
S113132090E08130910599F082309105D9F0892BB4
S113133009F02FC080E390E020E330E0F901208140
S1131340322F298120952323FC01208322C080E3AE
S113135090E020E330E0F90130812981232BFC0166
S1131360208317C080E390E020E330E0F90120817E
S1131370322F298120952323FC01208381E390E0EF
S113138021E330E0F90130812981232BFC01208302
S1131390000000000F900F90DF91CF910895CF933C
S11313A0DF931F921F92CDB7DEB789836A838A8148
S11313B0882F90E08130910599F082309105D9F021
S11313C0892B09F02FC083E390E023E330E0F90197
S11313D02081322F298120952323FC01208322C0E0
S11313E083E390E023E330E0F90130812981232B6A
S11313F0FC01208317C083E390E023E330E0F9018C
S11314002081322F298120952323FC01208384E32A
S113141090E024E330E0F90130812981232BFC01A1
S11314202083000000000F900F90DF91CF9108956A
S1131430CF93DF931F921F92CDB7DEB789836A8360
S11314408A81882F90E08130910599F0823091054E
S1131450D9F0892B09F02FC081E091E021E031E03F
S1131460F9012081322F298120952323FC01208337
S113147022C081E091E021E031E0F901308129814D
S1131480232BFC01208317C081E091E021E031E0AF
S1131490F9012081322F298120952323FC01208307
S11314A082E091E022E031E0F90130812981232BAF
S11314B0FC012083000000000F900F90DF91CF917A
S11314C00895CF93DF931F921F92CDB7DEB7898320
S11314D06A838A81882F90E081309105E1F082301F
S11314E0910571F1892B09F055C081E091E021E06B
S11314F031E0F9012081622F2981422F50E021E05F
S113150030E002C0220F331F4A95E2F720952623CC
S1131510FC0120833FC081E091E021E031E0F9014A
S11315202081622F2981422F50E021E030E002C067
S1131530220F331F4A95E2F7262BFC0120832AC091
S113154081E091E021E031E0F9012081622F2981DD
S1131550422F50E021E030E002C0220F331F4A95B1
S1131560E2F72095262BFC01208382E091E022E023
S113157031E0F9012081622F2981422F50E021E0DE
S113158030E002C0220F331F4A95E2F7262BFC01FC
S11315902083000000000F900F90DF91CF910895F9
S11315A0CF93DF931F921F92CDB7DEB789836A83EF
S11315B08A818823A9F082E091E022E031E0F901F8
S11315C02081622F2981422F50E021E030E002C0C7
S11315D0220F331F4A95E2F7262BFC01208315C006
S11315E082E091E022E031E0F9012081622F29813B
S11315F0422F50E021E030E002C0220F331F4A9511
S1131600E2F720952623FC01208300000F900F9021
S1131610DF91CF910895CF93DF931F921F92CDB79F
S1131620DEB789836A838A81882F90E081309105AF
S113163099F082309105D9F0892B09F02FC084E00C
S113164091E024E031E0F9012081322F29812095B5
S11316502323FC01208322C084E091E024E031E0D4
S1131660F90130812981232BFC01208317C084E0F8
S113167091E024E031E0F9012081322F2981209585
S11316802323FC01208385E091E025E031E0F9018A
S113169030812981232BFC012083000000000F905E
S11316A00F90DF91CF910895CF93DF931F921F92F4
S11316B0CDB7DEB789836A838A81813051F587E0AB
S11316C091E027E031E0F9012081622F2981422F46
S11316D050E021E030E002C0220F331F4A95E2F7C8
S11316E020952623FC01208388E091E028E031E066
S11316F0F9012081622F2981422F50E021E030E05E
S113170002C0220F331F4A95E2F7262BFC012083E7
S113171018C08A818823A9F488E091E028E031E0A8
S1131720F9012081622F2981422F50E021E030E02D
S113173002C0220F331F4A95E2F720952623FC01AD
S1131740208300000F900F90DF91CF910895CF93E5
S1131750DF931F921F92CDB7DEB789836A838A8194
S1131760882F90E08130910599F082309105D9F06D
S1131770892B09F02FC087E091E027E031E0F901DF
S11317802081322F298120952323FC01208322C02C
S113179087E091E027E031E0F90130812981232BB2
S11317A0FC01208317C087E091E027E031E0F901D4
S11317B02081322F298120952323FC01208388E076
S11317C091E028E031E0F90130812981232BFC01EB
S11317D02083000000000F900F90DF91CF910895B7
S11317E0CF93DF931F921F92CDB7DEB789836A83AD
S11317F08A81882F90E08130910599F0823091059B
S1131800D9F0892B09F02FC08AE091E02AE031E079
S1131810F9012081322F298120952323FC01208383
S113182022C08AE091E02AE031E0F9013081298187
S1131830232BFC01208317C08AE091E02AE031E0E9
S1131840F9012081322F298120952323FC01208353
S11318508BE091E02BE031E0F90130812981232BE9
S1131860FC012083000000000F900F90DF91CF91C6
S11318700895CF93DF931F92CDB7DEB78983698133
S113188080E0B4DA00000F90DF91CF910895CF93F8
S1131890DF931F92CDB7DEB78983698180E015DBC2
S11318A000000F90DF91CF910895CF93DF931F92A3
S11318B0CDB7DEB78983698181E098DA00000F90A3
S11318C0DF91CF910895CF93DF931F92CDB7DEB709
S11318D08983698181E0F9DA00000F90DF91CF916B
S11318E00895CF93DF931F92CDB7DEB789836981C3
S11318F082E07CDA00000F90DF91CF910895CF93BE
S1131900DF931F92CDB7DEB78983698182E0DDDA88
S113191000000F90DF91CF910895CF93DF931F9232
S1131920CDB7DEB78983698187E00ADB00000F90B9
S1131930DF91CF910895CF93DF931F92CDB7DEB798
S11319408983698187E098DB00000F90DF91CF9154
S11319500895CF93DF931F92CDB7DEB78983698152
S113196084E0AFDD00000F90DF91CF910895CF9315
S1131970DF931F92CDB7DEB78983698184E010DEDF
S113198000000F90DF91CF910895CF93DF931F92C2
S1131990CDB7DEB78983698185E093DD00000F90C0
S11319A0DF91CF910895CF93DF931F92CDB7DEB728
S11319B08983698185E0F4DD00000F90DF91CF9188
S11319C00895CF93DF931F92CDB7DEB789836981E2
S11319D080E06ADE00000F90DF91CF910895CF93ED
S11319E0DF931F92CDB7DEB78983698181E05CDE26
S11319F000000F90DF91CF910895CF93DF931F9252
S1131A00CDB7DEB78983698182E04EDE00000F9096
S1131A10DF91CF910895CF93DF931F92CDB7DEB7B7
S1131A208983698183E040DE00000F90DF91CF91CC
S1131A300895CF93DF931F92CDB7DEB78983698171
S1131A4084E032DE00000F90DF91CF910895CF93B0
S1131A50DF931F92CDB7DEB78983698185E024DEE9
S1131A6000000F90DF91CF910895CF93DF931F92E1
S1131A70CDB7DEB78983698186E016DE00000F905A
S1131A80DF91CF910895CF93DF931F92CDB7DEB747
S1131A908983698187E008DE00000F90DF91CF9190
S1131AA00895CF93DF93CDB7DEB740E060E881E6D9
S1131AB090E0B5D083E590E0FC01108285E590E0EC
S1131AC0FC01108280E0DF91CF910895CF93DF93E2
S1131AD0CDB7DEB785E690E02FE3FC01208384E6F2
S1131AE090E02FEEFC01208362E08FEF36D962E0B4
S1131AF08FEF79DA62E08FEF2EDB62E08FEF74DB39
S1131B0062E08FEFBADB62E08FEF00DC62E08FE32C
S1131B1046DC62E08FEF8CDC62E08FEF7CDD62E01C
S1131B208FEF15DE62E08FEF5BDE0000DF91CF9177
S1131B300895CF93DF93CDB7DEB780E0FCDE80E07D
S1131B40ECDE5BD00000DF91CF910895CF93DF935B
S1131B50CDB7DEB780E035DF80E041DF80E04DDFE8
S1131B6080E059DF80E065DF80E071DF80E07DDFC9
S1131B7080E089DF1BD80000DF91CF910895CF93D7
S1131B80DF93CDB7DEB77CD00000DF91CF9108950D
S1131B90CF93DF93CDB7DEB78ED00000DF91CF9126
S1131BA00895CF93DF93CDB7DEB741D00000DF9126
S1131BB0CF910895CF93DF93CDB7DEB787DF81E070
S1131BC058DE81E064DE81E070DE81E07CDE81E06D
S1131BD088DE81E094DE81E0BCDE80E0C8DE81E066
S1131BE0D4DE80E0E0DE5DDFA4DFB0DFC8DFD0DF7D
S1131BF0D8DF0000DF91CF910895CF93DF93CDB765
S1131C00DEB788E690E021E0FC0120838BE690E0DB
S1131C1020E8FC01208380E0DF91CF9108952FB765
S1131C20F8941BBEFC01608340832FBF0895CF93BB
S1131C30DF93CDB7DEB784E690E024E630E0F90127
S1131C402081277FFC01208381E890E02AE1FC01C8
S1131C50208386E890E02FEF30E0FC01318320837D
S1131C6088E890E02AEA30E0FC01318320838FE6A3
S1131C7090E022E0FC01208380E0DF91CF91089581
S1131C80CF93DF93CDB7DEB784E690E024E630E06F
S1131C90F90120812F7DFC01208385E490E022E07E
S1131CA0FC0120838EE690E022E0FC01208380E0AA
S1131CB0DF91CF910895CF93DF93CDB7DEB784E65C
S1131CC090E024E630E0F90120812F7BFC012083A1
S1131CD081EB90E022E0FC01208380E790E022E0A9
S1131CE0FC01208380E0DF91CF9108955058BB27F9
S1131CF0AA270ED00DC1FED030F003D120F031F46C
S1131D009F3F11F41EF4F3C00EF4E095E7FBE9C025
S1131D10E92F0FD180F3BA17620773078407950779
S1131D2018F071F49EF527C10EF4E0950B2EBA2F2E
S1131D30A02D0B01B90190010C01CA01A0011124CD
S1131D40FF27591B99F0593F50F4503E68F11A1679
S1131D50F040A22F232F342F4427585FF3CF46950A
S1131D6037952795A795F0405395C9F77EF41F162C
S1131D70BA0B620B730B840BBAF09150A1F0FF0FF6
S1131D80BB1F661F771F881FC2F70EC0BA0F621FE2
S1131D90731F841F48F4879577956795B795F795D2
S1131DA09E3F08F0B3CF9395880F08F09927EE0F64
S1131DB097958795089571D008F481E0089504D02B
S1131DC06894B111D9C00895BCD088F09F5790F0A1
S1131DD0B92F9927B751A0F0D1F0660F771F881F4C
S1131DE0991F1AF0BA95C9F712C0B13081F0C3D067
S1131DF0B1E00895C0C0672F782F8827B85F39F005
S1131E00B93FCCF3869577956795B395D9F73EF4AA
S1131E1090958095709561957F4F8F4F9F4F089552
S1131E20E89409C097FB3EF4909580957095619570
S1131E307F4F8F4F9F4F9923A9F0F92F96E9BB2726
S1131E409395F695879577956795B795F111F8CFA2
S1131E50FAF4BB0F11F460FF1BC06F5F7F4F8F4F0D
S1131E609F4F16C0882311F096E911C0772321F003
S1131E709EE8872F762F05C0662371F096E8862F9B
S1131E8070E060E02AF09A95660F771F881FDAF7F2
S1131E90880F9695879597F90895990F0008550F1F
S1131EA0AA0BE0E8FEEF16161706E807F907C0F0DC
S1131EB012161306E407F50798F0621B730B840BE4
S1131EC0950B39F40A2661F0232B242B252B21F4BE
S1131ED008950A2609F4A140A6958FEF811D811D5E
S1131EE0089597F99F6780E870E060E008959FEF98
S1131EF080EC089500240A9416161706180609069D
S1131F00089500240A94121613061406050608956B
S1131F10092E0394000C11F4882352F0BB0F40F4F3
S1131F20BF2B11F460FF04C06F5F7F4F8F4F9F4F33
S1131F30089557FD9058440F551F59F05F3F71F0B5
S1131F404795880F97FB991F61F09F3F79F087951C
S1131F500895121613061406551FF2CF4695F1DFA5
S1131F6008C0161617061806991FF1CF8695710535
S1131F70610508940895E894BB2766277727CB0169
S1131F8097F908958ADF08F48FEF08950BD0C0CF36
S1131F90B1DF28F0B6DF18F0952309F0A2CFA7CF60
S1131FA01124EACFC6DFA0F3959FD1F3950F50E03B
S1131FB0551F629FF001729FBB27F00DB11D639FF7
S1131FC0AA27F00DB11DAA1F649F6627B00DA11D9D
S1131FD0661F829F2227B00DA11D621F739FB00D43
S1131FE0A11D621F839FA00D611D221F749F3327B3
S1131FF0A00D611D231F849F600D211D822F762F4C
S11320006A2F11249F5750408AF0E1F088234AF048
S1132010EE0FFF1FBB1F661F771F881F9150504094
S1132020A9F79E3F510570F05CCFA6CF5F3FECF35C
S1132030983EDCF3869577956795B795F795E79580
S11320409F5FC1F7FE2B880F911D9695879597F991
S11320500895A1E21A2EAA1BBB1BFD010DC0AA1FE5
S1132060BB1FEE1FFF1FA217B307E407F50720F0FD
S1132070A21BB30BE40BF50B661F771F881F991F78
S11320801A9469F760957095809590959B01AC01C1
S10D2090BD01CF010895F894FFCFBD
S107209AF301010049
S9030000FC
